:020000041000EA
:101000004805002019100010000000009910001081
:1010100000040100000100001149124A124B00F0C7
:1010200018F8124880471249124A134B00F011F881
:101030001249134A134B00F00CF81349134A0020CD
:10104000521A02DD043A8850FCDC114880471148EE
:1010500080479B1A03DD043BC858D050FBDC704727
:10106000884600100C00002044010020ED10001004
:10107000C047001048050020D40800204C4B001049
:10108000D4080020D4080020D4080020F02000203C
:10109000253B00109D260010FEE700000D4A08B514
:1010A00013680D491B041B0E0B60FF2112681140D1
:1010B0000A4A1160002B03D1094A0A4B1A6008BD85
:1010C0001B025918084800F0F9F9064B4000186057
:1010D000F5E7C04600030140D4080020D8080020EE
:1010E0000048E801FC3F0020000024F408B501F0AE
:1010F000F5F801F0FDF808BDF0B503244746261CBD
:1011000080B4F8270E40F600B7408B089B00C31848
:101110001D69B046BD434F00BC401D61456F0426AC
:10112000A543456707250D40AD00AE40CC08A4009F
:101130000419276CB74327645678276CAE40351CDA
:101140003D4325640A4CA0420CD0546812788C4070
:10115000446040468240161C19690E431E6104BC5F
:101160009046F0BD01258D40046EAC430466ECE76B
:1011700000020440154B10B55B68DB0701D5002069
:1011800010BD041C8020C00000F058F8002817D1C2
:10119000208A00F0D1F918220D498B6C1A42FCD13B
:1011A00022680A4B0A491A6262685A6206228B6CEC
:1011B0001A42FCD1A268054B9A61E268DA61DEE767
:1011C0008020C00000F022F8E2E7C046000A01409B
:1011D00000000140024A1369184310617047C0467D
:1011E000000A0140C0230421064A5362536A19428F
:1011F000FCD1054AD3681843D060C322014B5A6220
:101200007047C0460000014000030140C023042194
:10121000084A5362536A1942FCD18021064AC90523
:1012200013691843106113680B42FCD1C322014BB0
:101230005A6270470000014000030140034B9B6865
:101240001840431E9841C0B27047C0460003014099
:10125000F8B5C02304242D4A5362536A1C42FCD1C2
:101260002B4A2C4D1468136824041D402A4B240E6D
:101270002B430B4380211360C90513680B42FCD13B
:10128000844229D98021254B8600214A9C46224F41
:10129000C905B4420CD965461368A4082B403B43EA
:1012A00025022B43136013680B42FCD1B442F2D8E1
:1012B000174A1A4B116800020B4017490B43802153
:1012C00003431360C90513680B42FCD1C3220F4BC3
:1012D0005A62FFF7E3FEF8BD80210D4A0F4F0E4E14
:1012E000C905A3009842E3D9002C0AD0A5021C1C12
:1012F00013683B4033432B43136013680B42FCD10C
:10130000EFE780250424ED00F2E7C046000001402D
:101310000003014000FF0FC00000F03FFF000FC0BE
:10132000C02304210B4A10B55362536A1942FCD101
:1013300082684168084C11432368084A1340C3225D
:101340000B432360034B5A6243780178181CFFF764
:101350007FFF10BD0000014000030140FFFFF0FFD0
:10136000014B18687047C046FC3F002010B5C3070A
:1013700013D40023012401E0202B0CD0021C0133E4
:10138000DA401442F8D00120202B03D00020044A78
:101390009B00995010BD0120FCE70023F6E7C046F2
:1013A000DC080020F8B51049104B80001A68455839
:1013B000002415409A682A439A60002D13D0012614
:1013C0000B4F01E0202C0ED02B1CE3401E4207D017
:1013D000331CA3409D43A300DB59002B00D098474A
:1013E0000134002DEED1F8BD8443001038000140D7
:1013F000DC08002038B50A4B041C0D1C984202D1B1
:101400000420FFF703FF8022E36852001343E360E8
:101410002168044B0B40A9031943216038BDC04625
:1014200000000448FF3FFFFF0B6843614B799B06B8
:10143000DB0F1B0543600B791B071B0F43624B79C6
:101440001B071B0F03624B79DB06DB0F83610B79F4
:101450001B09C3627047C046826A034B13400A02ED
:101460001343836241627047FFF0FFFFA82330B54A
:10147000C55809290BD8074B8900CC58E343064CC3
:1014800009598A402B401A43A823C25030BD0C2171
:10149000024BF6E7B843001090430010FFCFFFFF68
:1014A00010B5032449008A408C40111C436FA343AC
:1014B0004367436F1943416710BDC0460422034B85
:1014C0005A6318625962986A7047C0460000034028
:1014D0000022034B5A6318625962986A7047C046EB
:1014E000000003400422034B5A6318625962D96A10
:1014F000986A704700000340012205498B6C1A422C
:10150000FCD10123034A51680B4353607047C04626
:1015100000000140000A0140012205498B6C1A427B
:10152000FCD10121034A53688B4353607047C04686
:1015300000000140000A0140012206498B6C1A425A
:10154000FCD1054A000453681B041B0C184350606F
:101550007047C04600000140000A014070B50D1CF4
:10156000041C00F05DF8EA79002A26D056080136FE
:101570003602201C296800F06DF80122AB79013B8E
:101580005B0013431E43E6632B790232013B1B06CB
:10159000FF32134363636B79002B12D12A79616B9D
:1015A000531E1B040B436363A023DB00A3630123CF
:1015B0005B42E3642B89236470BD902610223601C0
:1015C000D7E7626B013B1B0413436363ECE7C04640
:1015D00084235B00C258E023DB041A420BD17F2234
:1015E000836B9343DBB2802BFAD080239B01C364CF
:1015F0008023C1507047C0235B00C150FAE7C0464A
:1016000086235B00C258E023DB041A4204D08E23F9
:101610005B00C05880B27047406D80B2FBE7C046A7
:10162000902310B5DB05041E9C420DD0084B984258
:101630000AD003230122E360E3681A42FCD00F22A0
:10164000236C9343236410BD0820FFF7DFFDF0E710
:1016500000020048F0B55F4656464D464446F0B499
:10166000012383B0632901D9002A07D1181C03B0D4
:101670003CBC90469946A246AB46F0BD171C0C1CDC
:1016800001920090FFF76CFE6421FFF717FF6421C1
:10169000061C201CFFF712FF174B474399460123F6
:1016A0004C469A469B46C846B502AD1B281C391CC1
:1016B000FFF704FF830A434506D88005800D48459F
:1016C00002D281469A46A346013CAD1B002CEDD1C7
:1016D00080235A4600981B0213430361019A416913
:1016E000064B013A92020B4013435246013A120450
:1016F000134343610023B9E7FF030000EF8000FCC0
:1017000070B584256D004659064C1206344044518C
:101710004659054C1B02344021430A4313434351AD
:1017200070BDC046FFFFFFF8C0C0FFF870B5862649
:1017300076008559074C12062C4084518459064D79
:101740001B022540802464052C4321430A43134394
:10175000835170BDFFFFFFF8C0C0FFEF30B5862496
:101760001202090611430A1C64000559044B2B4060
:1017700003510559034B2B401A43025130BDC0465B
:10178000FFFFFFF8FFC0FFFF10B507248C408A4021
:101790008369A3431343836110BDC04630B507245A
:1017A00084258C408A406D004359A3431343435121
:1017B00030BDC04630B5072486258C408A406D0078
:1017C0004359A3431343435130BDC046FF2238B5AC
:1017D0000D1C041C0D4B01201A60FFF717FD6B69EF
:1017E000236080236A681B0213438022A350A02336
:1017F000AA68E250EA680433E2502A69DD33FF3315
:10180000E2502A68C93BFF3BE25038BD0005014069
:10181000002A05D0054A283311409B001950704713
:10182000034A283311409B001950F8E700001F07B6
:101830001F07000080238021C25809060A43C250B6
:101840000C4AD158C0239B02194205D08021802028
:10185000490513580B42FCD18023074AD158C023B5
:101860009B02194205D080218020490513580B4264
:10187000FCD17047000403480008034810B5032951
:1018800000D90439A0230F245B00C258A243C250E0
:10189000C2581143C15010BDA023C2589C46304BC2
:1018A000F0B51A40141C1F274A792E4D5207520DCD
:1018B00022430C79BA43E406E40E22436446025103
:1018C0000259294E2A40141CCA7952075209224350
:1018D0008C793240E406E40A22436446025104341F
:1018E00002591A404B7A5B075B0D13430A7ABB43DC
:1018F000D206D20E1343035103598A7A1D40CB7A84
:10190000D2065B075B092B433340D20A13430351D2
:1019100080230A69C250CA683833C250CB781D0789
:10192000DF069C065B06DA0F4B88FF0F9B059E09BE
:101930000B7880215B075B0F3343F82676008351D9
:10194000835909063F070B43AD0F3B43AD06E40F38
:101950002B4364072343191C93070B438351F0BDAA
:10196000FFF8FFFFFFFFFFF8FFFFE0FF802210B549
:1019700003248358A3431943815010BD002907D085
:10198000012900D070478423C2581143C150F9E7A0
:101990008022012381580B438350F3E7274BF0B596
:1019A0004646984684224F4644468C469958244BD6
:1019B000C0B41940A150234903278C58224E23401C
:1019C0008B5063461B78B1461F403D1C6C1EA541E1
:1019D0004446A4581B07344046469B0F1B02ED02A9
:1019E0001C432C43B4504E468C58264033432B4363
:1019F0008B506246154B52681343802292008350ED
:101A0000634601229B681343812292008350022F78
:101A10000ED084238020094AC004D1580143D150FC
:101A20000849CA580243CA500CBC90469946F0BDBA
:101A30008021835849020B438350EAE7000403489E
:101A4000FFFFFFFB00080348FFFCFFFF0080800052
:101A500070B5012488258C404359A343147B8C40E6
:101A600023434351537B5CB2002C0CDB012921D072
:101A7000002917D01C1C002364B29C40B026231CF4
:101A800085592B438351C8245568035980312B4312
:101A9000035108349568035989002B430351136897
:101AA0000B5070BDB0241F250359AB430351547B29
:101AB0000023E1E7B024034B05592B400351547B2D
:101AC0000823D9E7FFE0FFFF0C4A08B5031C1068A4
:101AD00000280FD0032103338B430949C3188B42DD
:101AE00001D2136008BD02F017F80C230360012037
:101AF0004042F7E703481060ECE7C0465C0900206D
:101B0000FC3F0020F02000207047C046F0B547465B
:101B100080B40178002918D08024061C8A2564002E
:101B2000A0460B4F013638686D0089B2FFF750FDB3
:101B3000386843592342FCD08C2342465B0001366F
:101B4000C250731E19780029EFD104BC9046F0BD35
:101B500048050020F0B5474680B401390909114B0A
:101B60008AB2B2B09A4219D00F4B041C98460F04A7
:101B7000FF0A20370D4EC719251C20352288311C3D
:101B8000684601F0FFFF02346846FFF7BFFFA54239
:101B9000F4D14046FFF7BAFFBC42EDD132B004BCED
:101BA0009046F0BDFFFF0000E4430010E843001042
:101BB00070B5141C061C0D1C0748FFF7A7FF301C4E
:101BC000211CFFF7C7FF0548FFF7A0FF281C211CB9
:101BD000FFF7C0FF70BDC046EC4300101C4400106E
:101BE00008B543685B68984708BDC046F8B5846887
:101BF000051CE368A26893421DD22B22416800684D
:101C00008A5C002A3BD08A268022760081595201C4
:101C1000171C114203D00DE0A2689A420AD922682B
:101C2000D15CFFF7D5FC2868E36882590133E36093
:101C30003A42F1D0F8BD8A2302685B00D3581B05F5
:101C4000F8D52B234068C35C002B13D084214900B6
:101C500055580F4B2B4053507F21936B8B43DBB276
:101C6000802BFAD00023237623608368002BE1D0F9
:101C70009847DFE7116C074B0B401364ECE72268D1
:101C8000D15CFFF7A5FCE3680133E360D2E7C0460F
:101C9000FFFFFFBFFFDFFFFFF0B547462C2380B4F7
:101CA0004268071CD35C8568002B2FD08A2149002D
:101CB0006B692A6900688846082601E09A4211D0BB
:101CC000414641580E421CD19342F7D26A68D4185B
:101CD000FFF796FC20706B692A6901336B613868E5
:101CE0009A42EDD1002386226B76520081581E4B1A
:101CF0000B4083507B68DB68002B04D098476B69EE
:101D00002A699A4215D804BC9046F0BD6B692A69CD
:101D100093421BD39A42F6D100233A686B76116C3A
:101D2000124B0B4013647B68DB68002BEBD09847A9
:101D3000E9E7D31A2C2203CF0124895C8C40621E70
:101D4000A34200D25A1EFFF709FDDCE76A6800686B
:101D5000D418FFF755FC20706B692A6901336B6159
:101D60009A42D0D1D8E7C046FFFFFF9FFF3FFFFF59
:101D700038B590242E4DE405281C2E4A0621FFF785
:101D8000BBF9201C2C49FFF7E9FB07220621E36978
:101D9000201C93430B43E361A36A023993430B4333
:101DA000A362236B0C3193432363033A0123FFF7B0
:101DB000A7FC201C002104220023FFF7B7FC0F2200
:101DC000236C281C93430D3A1343236400211B4AC0
:101DD000FFF792F9201C10210022FFF7D5FC201CF0
:101DE00010210222FFF7DAFC201C10210122FFF74C
:101DF000E1FC201C13210122FFF7DCFCC221C020E2
:101E00000F4A8900535800061B021B0A0343535014
:101E100080231B01136050580A4B0340C02000046C
:101E2000034353508023DB000020136038BDC046BD
:101E3000000204408C440010A8440010A04400108C
:101E400000E100E0FFFF00FF08B50248FFF7CEFE0B
:101E500008BDC0464805002008B50248FFF71CFF32
:101E600008BDC046480500202622825C031C0120D4
:101E7000002A07D021229A5C0020002A02D15B6947
:101E80000132DA607047C0462123C25C203B002A41
:101E900001D0181C704741698A681342F9D0262284
:101EA000825C002AF5D0086903430B610023F0E748
:101EB000F8B52123C75C002F46D0826801238A42EF
:101EC00040D84568A9423DD8EB0B994249D9002337
:101ED0000E262A1C5C1CF31ADA40231C9142F8D807
:101EE0000123002F2ED10369051CC0691A680379EC
:101EF0000F37E6B2BB433C4023430371081C002369
:101F0000002101F06DF820235B42E31822D4081C65
:101F1000D840E140144A002301F042F880B2012881
:101F200000D901380F21688431406869FFF794FABD
:101F30006B696A8C5A630022DA632B69EA689B68D2
:101F40001A610023181CF8BD43699A680123D2075F
:101F5000F8D4B2E720230A1C1B1B9A40E040104330
:101F6000D7E70024BCE7C04600E1F50570B5041CC6
:101F7000006900F04DF90126051C301C23699968A1
:101F8000237ECA689840031C1343CB606069E169F3
:101F9000FFF74AFA638C6069E26843630023C36316
:101FA00023699B681A612523E35C002B0DD1022372
:101FB00002691343036126220123A354023AA25C5F
:101FC000002A00D0C360281C70BD20230021E25CE1
:101FD000FFF74CFAA4236069C2581643C650E6E7DF
:101FE000262208B5825C031C0020002A03D121327E
:101FF0009A5C002A00D008BD181CFFF7B7FFFAE76B
:1020000010B54368041CDA789878920040001043B9
:102010005A7810431A79D20010435A79520110436A
:102020009A799201104304D1DB790020012B07D06B
:1020300010BDFFF7CFF863680120DB79012BF7D1E2
:1020400080204000FFF7C6F80120F1E738B5041CF6
:1020500043680220996800F0D7F86368051CDA79B4
:102060000020012A00D038BDD968043000F0CCF837
:102070002840C0B2F7E7C04638B5051C124800F04A
:1020800069F8041E02D12B7A002B01D0201C38BD28
:102090002868FFF76FF8002801D00124F6E7281C14
:1020A000FFF7AEFF002806D16B681B78012B08D024
:1020B00001232B72EAE7281CFFF7C8FF0028E5D1AF
:1020C000F2E7FFF719FAF3E788050020F0B5057885
:1020D00043786AB2002A20DB92081C49032492004C
:1020E0005118FF22C0272C40E4009446A240BF00B4
:1020F000CE5996439A0163461A40131CA3403343BA
:10210000CB518378002B06D01F231D401E3BAB40D4
:102110001D1C0E4B1D600020F0BD0D49FF278C4695
:102120000F220321ECB2224021403C1CC9008C400C
:10213000083A920892006244D6699B01A6433B404C
:102140008B40311C1943D161DBE7C04600E100E060
:1021500000ED00E0F0B5474680B403790126002B7E
:1021600003D0301C04BC9046F0BDC02504681A4959
:10217000AD0022784F59FF3392019F431A403A43F2
:102180004A514A59154F9446627892011A401202F8
:1021900090466246174042463A434A51A2784F5908
:1021A000920113400E4A1B043A4013434B51E3780B
:1021B000002B00D00E602379002B02D00222064BA8
:1021C0001A606379002B02D00422034B1A600123AA
:1021D00000260371C5E7C04600E100E0FF00FFFFF5
:1021E000FFFF00FF08B50020FFF7DCF808BDC04680
:1021F00008B50120FFF7D6F808BDC04608B5022093
:10220000FFF7D0F808BDC04608B5FFF7AFF808BD26
:1022100010B5437B002B0CD1041C017B8068FFF7B9
:10222000E9F88021A2684900D3680B43D3600123F9
:102230006373002010BDC046F8B54F464646C0B493
:10224000037D022B04D0181C0CBC90469946F8BDA7
:10225000041CC068A168FFF7B9FA802398467F3B49
:10226000251C0026994600272B6803CBFFF714FB9B
:102270002B6803211868FFF779FB2B681B7A002B6A
:102280000AD14346E1684846CA58331C1033984087
:10229000031C134342468B50F1B22069FFF76EFBDB
:1022A00008CD5F72012E05D1637D002B04D1002380
:1022B0002375C8E70126D7E7E068FFF7BBFAF6E722
:1022C00010B5041C017B021D0068FEF715FF206895
:1022D000217B627BFFF7E4F8002010BD7047C04609
:1022E0000378002B01D10133037000207047C046F2
:1022F00030B585B001A8021C034B32CB32C2FFF7C8
:102300000FF805B030BDC04664450010F8B54F4623
:102310004646C0B4037E022B04D0181C0CBC904669
:102320009946F8BD041CC068FFF786FFE368051CEA
:10233000D868A368002219680023FFF769FAE368E8
:102340006168D868FFF72AFBC0235B009846803B92
:10235000FF3B002799462268BB009E58717BB068FE
:102360003268FFF775FBA02189008C4633687268DC
:102370009B78B1681B0712689B0E63445A50424613
:10238000E368D868337B9B00C3189958727B4E462C
:102390009640321C0A4341465A50012F44D163688B
:1023A0001B7A1B072DD52369002B2AD01A685B687E
:1023B000D6B271B29946002938DB0326274B89082B
:1023C0008900CF183240C023D600FF229B00F95865
:1023D0009C46131CB34099434B46884699010A40DA
:1023E000B240434613436246BB50617EFFF746FA54
:1023F0001F2223691B6813401E3A9A40131C174A78
:1024000013606369002B00D09847A37E002B08D08F
:1024100081228020E3689200D96880008B580343B2
:102420008B5025762B1C78E7012794E70F220C4B65
:10243000023732403E40FC379C463B1CF600B3401E
:10244000083A920892006244D16999434B469B0135
:102450003B40B3401943D161C7E7C04600E100E00B
:1024600000ED00E08122C3688020D96892008B587B
:10247000800003438B507047C02189008C4603685D
:1024800082689B781B079B0E6344985880B2704704
:1024900008B51948FFF724FF002800D008BD1748E9
:1024A000FFF7EAFD0028F9D11548FFF799FD00284C
:1024B000F4D11448FFF72AFF0028EFD11248FFF7A4
:1024C00005FE0028EAD11148FFF7FAFE0028E5D101
:1024D0000F48FFF7F5FE0028E0D10E48FFF7F0FEA9
:1024E0000028DBD10C48FFF7EBFE0028D6D10B48C3
:1024F000FFF776FBD2E7C046840900207C05002068
:1025000054050020E0050020D84400103445001098
:102510002445001044450010544500104805002093
:10252000F0B557464E464546E0B49A4608AB1B8880
:102530000C1C5B0099468046494F09A90D78381C50
:10254000111C1A1C01F014FB464E51464A46301C21
:1025500001F00EFB631E444A9B0099464346924697
:10256000191D101C4A4601F003FB00235246494640
:102570008B505146A21E920053503C4A944642460C
:102580006444A40013514444043C2360384B1B783A
:10259000002B56D1022D11D00B9801F0A5F835492A
:1025A00000F070FF3449061C00F07AFD334B041C28
:1025B000211C186800F0CCFC00281FD1304B1A6891
:1025C000197B80235B028B4053602E4B19681A7B6A
:1025D0000123181C90402C4A48601168127B9340DC
:1025E0004B600023294A1360294A13600222294BB9
:1025F0001A701CBC90469946A246F0BD264B211C81
:10260000186800F0B9FC0028D8D0002D1FD11E4B4F
:102610001A68197B80235B028B405360194B196841
:102620001A7B0123181C9040154A48601168127BE0
:1026300093404B60174B1D70144B1E60144B1C6075
:10264000D7E7381C311C8022FFF7B2FAA2E70D4B06
:102650001A68197B80235B028B4053600A4BDEE7CC
:10266000940A0020980B002090090020FFFFFF3FF4
:10267000540600200080BB419A9931425806002040
:10268000544500103445001044450010900A0020C5
:10269000940B0020600600204406002070B584B032
:1026A000FFF7F6FE234B244E19681A7B0123181CF2
:1026B00090404860181C214A1168127B9040204AC3
:1026C00048601168127B93404B601E4B1A68197B5F
:1026D00080235B028B401C495360088802AB188042
:1026E00089781A4A99706946194B0393331D11CBA7
:1026F00011C10024106851683368926800F02EF808
:10270000144800F0D1F8144D002C05D12B78002B83
:10271000FCD000F08FF801242B78002B05D07068D6
:1027200000F0A0F800F0A8F8EEE700F08FF8002421
:10273000F5E7C04634450010380600204445001037
:1027400054450010244500105C0600204806002077
:1027500054050020212500103406002082B0F0B579
:102760000C1C85B0161C0392254A264D1460F2B24B
:10277000254E029132700BA90B93019028600F7ABD
:10278000224E234937700C9EDBB20E602149002B8C
:1027900000D101330B700EAB9E781F490E700126DD
:1027A00059781E4B19700F991D4B1960331C9340BB
:1027B0001C4A1D4913609B195843FEF77FFEFA21FE
:1027C000201A8900C003FEF779FE80B2FEF7B4FE3E
:1027D00064212B680F985943FFF76AFBD12304202B
:1027E000124A1B01D1588143D150D15802380143BC
:1027F000D1500F4B1E6005B0F0BC08BC02B01847AA
:10280000C40C0020B40C0020AE0C0020DC0C002016
:10281000E00C0020AD0C0020980C0020A10C002042
:10282000B80C0020D80C0020A086010000E000E0D9
:10283000A80C002008B5044B01201B68002B02D017
:10284000FEF75AFE002008BDA80C002008B5044B76
:1028500001201B68002B02D0FEF75EFE002008BDA1
:10286000A80C0020034B1A68824200D01860002098
:102870007047C046E00C0020084B10B51B680120D3
:10288000002B09D00020D1220224054B05491870E5
:1028900012018B58A3438B5010BDC046A80C0020DA
:1028A000BC0C002000E000E0044B1A680123002A61
:1028B00002D0034B18600023181C7047A80C00209E
:1028C000C00C0020F0B5BC4DBC4B2A6889B09A42C0
:1028D00019D1D1220420BA4912018B5883438B505D
:1028E000B84B1B68002B00D09847B74B1868FFF710
:1028F000BBFA0023B54A2B601360B54A136001226E
:10290000B44B1A7056E1B44C2368013B9A4241D251
:10291000B24B1B78002B08D1B14EB24CB24FB3482A
:1029200026603E60FFF79EFD0CE00120FEF76EFC86
:102930000120FEF783FC0028FAD1EDE73A68A84BA6
:102940009A4203D12368B342FCD0F7E7A34B1B782C
:10295000002B02D00120FEF745FC23682A68A4481A
:1029600051009BB20B522468A2481BB20C529748EC
:10297000013204682A601B1903603B689E489BB2C1
:102980000B523C689D481BB20C52914908681B18B9
:102990000B600FE1914B1B78002B0AD1904E924BAC
:1029A000904F92483E601E60FFF75CFD331C8E4ED8
:1029B0000CE00120FEF72AFC0120FEF73FFC002876
:1029C000FAD1EBE73168864A914203D13A689A42DC
:1029D000FCD0F7E7814B1B78002B02D00120FEF7DB
:1029E00001FC2A683B6850003F68824A8049875250
:1029F000764A9BB2176843521BB2DB1913603368E7
:102A00007D4F9BB2C35337687C4E1BB287537048CF
:102A100006689B190360694B161C2B60784B0D1CD4
:102A20001B68002B00D09847674B1868FFF72CFAFB
:102A3000744F31683A78281C00F022F96E4E644BCE
:102A40003A781968301C00F01BF9281C216800F046
:102A500027F9301C216800F023F92368291C5B004A
:102A60001A1C6948059301F083F8311C059A6748E0
:102A700001F07EF8664E3A78281C311C00F056F9B9
:102A8000644B05971B78321C002B0AD000232B8443
:102A900033846B847384AB84B384EB84F3842B859D
:102AA00033855D4B52491B78002B0AD00023CB8124
:102AB000D3810B8213824B8253828B829382CB828F
:102AC000D3822368554E0093554B06AF1B78554D66
:102AD0000193381C331C00F0BBF92B1C3A1C03CAB1
:102AE00003C3514B3A681B689A422BD9059B464851
:102AF0001A784B4B45491B7800934C4B00F0F6F984
:102B00004B4B071C1B68002B04D04A4A1278002A42
:102B100000D19847484B1B689C46002B0DD023687A
:102B2000019759089BB200932B6889B202936B6896
:102B3000301C03932F4A314BE047404B1A783D4BF2
:102B40001A7022E03A4B1B68002B05D0394A1278E4
:102B5000012A01D102209847374B1F68002F0ED061
:102B60002368301C59089BB20093022301932B6801
:102B700089B202936B681F4A0393204BB8472D4AD2
:102B80001378002B01D0013B1370D12304200C4A91
:102B90001B01D1580143D150D15802388143D15043
:102BA00027490978002903D0D1588143D15001E049
:102BB000084B197009B0F0BD6C060020E703000057
:102BC00000E000E09C0C0020B80C0020C80C0020A5
:102BD000CC0C0020BC0C0020D80C0020980C00204D
:102BE000FFFF00006806002064060020E0050020CA
:102BF000EC0E0020EC140020EC1C0020EC1800204F
:102C0000B00C0020AE0C0020EC1E0020EC0C0020CC
:102C1000EC160020BD0C0020AC0C0020EC1A0020AB
:102C2000DC0C0020D00C0020E00C0020EC10002078
:102C3000A40C0020A00C0020C00C0020AD0C002033
:102C4000A10C002008B5034B1B78002B01D1FFF726
:102C500039FE08BDBC0C002008B50548FFF70CFC88
:102C6000044B18600448FFF707FC044B186008BDCC
:102C7000D0050020680600201C0600206406002005
:102C800010B50124D14094400023A2B2934205DA4A
:102C900002880133521A02800230F6E710BD0000AC
:102CA000F7B5041C802040000D1CFEF711FC261C0B
:102CB00000271D4A69108032450000928F4214DAC5
:102CC0000022B35E01370193009B00229B5E9C466D
:102CD00080236246DB019B1A019A5343DB13338046
:102CE000009B02365B190093E8E7CB430026DB1715
:102CF0000B4058435A00A41840300B4A400049008A
:102D00006D42101876198B420DDA0027E25F01330D
:102D10009446825F8027FF01BA1A67467A43D2132E
:102D200022800234EEE7F7BD700600200123F0B5E3
:102D30008BB00291191C914000228C4601904C1ED0
:102D4000A34220DC614649105018A042FBDC481E1B
:102D5000024052189A4214DD01995800095A019D07
:102D6000009151006D182F88019E37526E463688AB
:102D7000029F2E80029E029D71182D5A0E883E528F
:102D80000D800133DCE707230393063B0093009B90
:102D9000634559DA0024009B5E009B000593009B6D
:102DA0009C424CDA231C039A284993401A1C5B006E
:102DB0005B5A403252005B42525A9BB20993019BCC
:102DC000089262009818029B04949A186B4620217E
:102DD000595E855F6B4607912427DF5F935F0799F4
:102DE00006936943CB1306997D437943C913079F23
:102DF000591A069BED137B43DB13ED180027C35FC5
:102E000089B25B105B1A83530027D35FADB25B10AE
:102E10005B1B93530027C35F5B10C918018000231D
:102E2000D75E049B7F109B190493059BED191580B9
:102E3000C018D218049B6345C8DB0134AFE7039B7D
:102E40000096013B0393A2E70BB0F0BD7006002093
:102E5000F0B585B0029100219C460AAB039204CBE9
:102E60000E1C1B78520801920C1C0F1C012B36D132
:102E7000019B9F4236D0029A7B00D25E039CE35EA8
:102E8000141C5B435443E2188024E405944201D9A6
:102E9000A408FBE70025002C07D063199A4201D350
:102EA000D21A1D196D08A408F5E76246BB00D5507B
:102EB000B54201D9391C2E1C0137D9E7029B6200AB
:102EC0009B5E039DAA5E1D1C52435D43AB18654685
:102ED000A200AB50B34201D9211C1E1C0134019B3E
:102EE0009C42EBD10660416005B0F0BDF0B5012415
:102EF00087B002930CAB1B78151C071C0E1C0393A8
:102F0000FFF714FF221C6B1C9A40AC40039B0092FD
:102F1000019304A8391C321C029BFFF799FF059806
:102F20006408A042A441604207B0F0BD8446081C7A
:102F30006146FFE71FB500F05FFA002801D40021C9
:102F4000C8421FBD10B500F0E3F94042013010BD8A
:102F500010B500F051FA002801DB002010BD01205F
:102F600010BDC04610B500F047FA002801DD002072
:102F700010BD012010BDC04610B500F0F3F90028C7
:102F800001DC002010BD012010BDC04610B500F0CE
:102F9000E9F9002801DA002010BD012010BDC0466B
:102FA000002B11D1002A0FD1002900D1002802D016
:102FB0000021C943081C07B4024802A1401802902E
:102FC00003BDC046B507000003B4684601B50298CA
:102FD00000F04CF8019B9E4602B00CBC7047C04606
:102FE000F0B54F46464605042D0C2C1CC0B4170402
:102FF000160C3F0C9946030C7C4375435F437343A7
:103000007D19260CAD199C46AF4203D980235B0283
:103010009846C4444B465143434324042E0C240C8D
:103020002D0466442C1959188919201C0CBC904693
:103030009946F0BDF0B583B0161C1F1C009001919D
:1030400000F0BAFB041C0D1C221C2B1C301C391C6C
:10305000FFF7C6FF009A019B121A8B410899201CAA
:103060000A604B60291C03B0F0BDC046F0B5141CCB
:1030700083B01D1C0090019100F096FC221C2B1CBB
:10308000061C0F1CFFF7ACFF009A019B121A8B4124
:103090000899301C0A604B60391C03B0F0BDC04673
:1030A000F0B556464D465F464446F0B443024500EF
:1030B000C70F83B08A465C0A2E0EB94641D0FF2E58
:1030C00026D080231B042343DC00002398469B4624
:1030D0007F3E53465B025D0A53465A00DB0F120ED9
:1030E0009A4639D0FF2A33D080231B042B43DD00BE
:1030F00000237F3A5146B21A46467940081C019295
:103100001E430F2E00D976E07E4AB6009659B74688
:10311000002C30D108239846063B9B46D9E78023F4
:103120000021DB03FF245B02E4055B0AC90723439C
:103130000B43181C03B03CBC90469946A246AB46D4
:10314000F0BD002C28D104239846033B9B46C0E7E2
:10315000002D1FD1022302E0002D11D10123B21A4C
:1031600050464646784001921E430F2E27D86649A6
:10317000B60089598F460C239846093B9B46A8E721
:10318000281C00F0FBFA7622431F52429D40121A7F
:103190000023AFE70323ADE7201C00F0EFFA431F45
:1031A0009C4076235B421E1A002398469B4690E77C
:1031B0000025D1469B465B464846022B6FD1012134
:1031C000FF2401400023AEE77E23019A5B429B1A55
:1031D0001B2B6DDD01214B46194000240023A2E783
:1031E0008023DB031C4249D18023DB0323435B02A2
:1031F0005B0A391C96E763016D01AB4237D3894600
:103200001A2001215B1B01241E1C49005B00002EBB
:1032100001DBAB4201D35B1B214301380028F3D112
:10322000581E83410B431D1C019C7F34002CCBDDB9
:103230006B0704D00F232B40042B00D004352B0147
:1032400004D5019A314B8032141C1D40FE2C07DD41
:103250004B460121FF241940002364E7251CAAE7FF
:1032600001214A46AB015B0AE4B211405BE7019AD7
:103270008946013A01921B200021C4E71D4207D074
:1032800023435B025B0A391C4CE700256302ABD584
:103290008023DB032B435B025B0A514642E7032B8F
:1032A00025D0012BC0D101210024014000233AE7A1
:1032B000291CD9402B1C019A9E3293405D1EAB41C4
:1032C0000B435A0704D00F221A40042A00D00433BB
:1032D0005A0105D54B46012101241940002322E75C
:1032E00001214A469B015B0A114000241BE7802311
:1032F00001214A46DB032B435B020A405B0A111C97
:1033000010E7C04688450010C8450010FFFFFFF7D2
:10331000430270B542004C005D0AC30F4802120E12
:10332000460A240EC90FFF2A05D0FF2C08D0012021
:10333000A2420BD070BD0120002DFBD1FF2CF6D195
:103340000120002EF6D10120A242F3D1B542F1D1E5
:103350008B4205D0002AEDD1281C431E9841E9E795
:103360000020E7E7F0B543024D024A0044005E0A40
:10337000240EC30F6D0A120EC90FFF2C0DD0FF2AA9
:1033800031D0002C0DD177427741002A23D1002D76
:1033900021D10020002F0BD107E0002E28D1FF2AD9
:1033A00021D0002A05D08B4207D058420123184370
:1033B000F0BD002DF9D08B42F7D19442F5DC04DB4F
:1033C000AE42F2D80020AE42F2D258424341012030
:1033D0005B421843ECE7002FE5D048424141012011
:1033E00049420843E4E7002D02D1002CCBD0DAE7B4
:1033F00002204042DCE7C0464302F0B542004C00E8
:103400005E0AC30F4802120E450A240EC90FFF2A96
:103410000FD0FF2C1AD0002A10D177427741002C10
:1034200029D0002F17D0484241410120494208438A
:103430000BE00220002E08D1FF2C07D0002C0AD16F
:10344000002D08D1584201231843F0BD0220002D61
:10345000FBD1002AE1D08B42F4D1A242F2DC04DBA2
:10346000AE42EFD80020AE42EFD258424341012095
:103470005B421843E9E7002DD3D10020002FE4D1AF
:10348000E0E7C046F0B55F4656464D464446F0B4C8
:1034900045024600C40F83B00F1C6D0A360EA346CA
:1034A00045D0FF2E25D080231B041D4300239A46C0
:1034B000ED007F3E01937B025B0A98467800FB0F8C
:1034C000000E994640D0FF2838D0802342461B0486
:1034D0001343DB00984600237F384A46019F30188B
:1034E0006240411C1F430F2F69D87D4EBF00F65923
:1034F000B746002D45D108230193063B9A46DAE7EB
:1035000093465346022B2FD15B46012400251C40D5
:10351000FF236D02DB056D0AE4071D432543281CCC
:1035200003B03CBC90469946A246AB46F0BD002D88
:103530002CD104230193033B9A46BCE743465A42ED
:1035400053410322D31AC8E742460123002AC4D0BC
:10355000404600F013F94246431F9A4076235B42EF
:10356000181A90460023B8E7032B00D1ADE0012BD9
:1035700000D08CE05B4654461C40E4B2002300259A
:10358000C7E70C230193093B9A4694E7281C00F0F7
:10359000F5F87626431F9D4000237642361A0193A4
:1035A0009A4688E780250024ED03FF23B1E74546CE
:1035B000CB469A46A5E7454693469A46A1E7434639
:1035C0002C041B0C9C46230C444626041C1C360C65
:1035D0002F0C7443351C66467D4373437743EB18C9
:1035E000260C9E19B54203D980235B029C46674492
:1035F00024043304240C1B199D016C1EA5419B0E51
:10360000360C2B43BD19AD011D432B0104D50123FD
:1036100068081D400543081C031C7F33002B2CDD6C
:10362000690704D00F212940042900D0043529015D
:1036300003D52C4B1D40031C8033FE2B17DD0124CA
:10364000FF231440002564E78020C003054209D011
:103650004346034206D1454605436D026D0A4C467A
:10366000FF2356E705436D026D0AFF2351E701244E
:10367000AD016D0ADBB214404BE77E235B421B1A9F
:103680001B2B07DD012400231440002541E7081C03
:103690005A46C1E79E30291C8540D940681E8541A5
:1036A0000D436B0704D00F232B40042B00D00435AF
:1036B0006B0104D5012401231440002529E70124CE
:1036C000AD016D0A1440002323E78023DB031D4373
:1036D00001245B466D0223401C1C6D0AFF2318E782
:1036E00008460010FFFFFFF710B5041E35D000F0AC
:1036F00045F89E21091A962909DC082830DD021CAC
:10370000231C083A93405B025B0AC8B220E0992967
:103710000CDD0522231C121AD3401A1C031C1B3378
:103720009C40231C5C1EA34113431C1C052801DD87
:10373000431F9C400F4B2340620704D00F221440CC
:10374000042C00D004335A010ED49B015B0AC8B28A
:103750005B025B0AC005184310BD00200023F7E799
:1037600063025B0AC8B2F3E79F21024A091A1340B9
:10377000EBE7C046FFFFFFFB7047C0461C2101235B
:103780001B04984201D3000C10391B0A984201D344
:10379000000A08391B09984201D30009043902A222
:1037A000105C40187047C046040302020101010189
:1037B0000000000000000000F0B544465F46564699
:1037C0004D46F0B41C1C85B0002900DAA9E00F1C9E
:1037D0000021061C8846101C191C002C00DA97E0FA
:1037E000341C3D1C82468946B94273D870D0494684
:1037F000504600F085F98346391C301C00F080F9F2
:103800005B46181A031C8346203B9C4600D59CE06F
:103810000023002251460092019363469940019192
:1038200051468140019B0091BB4200D983E000D109
:103830007EE0009A019B341C3D1CA41A9D41634606
:10384000002B00DA9AE00026002702960397013643
:103850009E400396012686400296002800D171E022
:103860000099019AD30799464B464E081E435708C4
:10387000002301220CE0AF4201D1A6420AD8A41BCA
:10388000BD4124196D410138A4185D41002806D0BE
:10389000AF42F0D9013824196D410028F8D1202217
:1038A000029E039F5B46524236196F4199185AD4C3
:1038B000281CC8402C1C5B46DC40002968DB041C2B
:1038C0008C40231C59468840021CB61A9F4103E0D5
:1038D000B0428CD90026002741464B1E9941002357
:1038E00000910193009A019B002554429D41331C95
:1038F0006340181C3B1C6B40191C009B019CC018AA
:10390000614105B03CBC90469946A246AB46F0BD2D
:103910004346DB430C1C9846131C00215842A1412E
:103920005EE7002746428F4101214942884652E71F
:10393000B14200D87DE700260027029603970028B1
:1039400000D08DE7029E039FC6E720215346091A47
:10395000CB400022191C0023009201934B46834068
:103960000B4301935CE75A4620239B1A2A1C9A407A
:10397000201C131C5A46D04018439BE720260027E2
:10398000331A0026029603970127DF40039761E769
:103990005B4620215D46C91A031CAC40CB40191C74
:1039A000231C0B438EE7C046F0B545464E465746AE
:1039B000E0B4041C82B00D1C914698468B4262D83C
:1039C0005FD04146484600F09BF8291C061C201C8D
:1039D00000F096F82023311A5B428A46C81865D455
:1039E0004B4683401F1C4B468B401E1CAF4258D891
:1039F00055D0A41BBD41002800DA77E00022002347
:103A00000092019301328240019201238B40009386
:103A100000293CD0FB079846404672087B080243C9
:103A2000012600270CE0AB4201D1A2420AD8A41A19
:103A30009D4124196D410139A4197D41002906D009
:103A4000AB42F0D9013924196D410029F8D1202267
:103A50000098019953465242001969419E183AD480
:103A60002F1CF7405346DD40002E29DB3C1CB440A0
:103A7000231C5446A7403A1C801A9941009001919A
:103A800005E082429DD90023002400930194009810
:103A9000019902B01CBC90469946A246F0BDA342D3
:103AA000A7D90022002300920193B1E720224B46C0
:103AB000521AD3401A1C43468B401F1C174392E7EF
:103AC000534620245646E41A3B1CB540E3401C1CD8
:103AD0002B1C2343CDE7524620239B1A2A1C9A40D5
:103AE000271C131C5246D7401F43BBE7202300224C
:103AF000581A0023009201930132C240019284E7D8
:103B000010B5002903D1FFF739FE203002E0081C70
:103B1000FFF734FE10BDC046014B18687047C04621
:103B2000D00800200E4B70B500251E1C0D4CE41A69
:103B3000A410A54204D0AB00F35898470135F8E72C
:103B4000FDF7E2FF084B00251E1C084CE41AA410E8
:103B5000A54204D0AB00F35898470135F8E770BD93
:103B6000D4080020D4080020D4080020D408002065
:103B7000002310B5934203D0CC5CC4540133F9E761
:103B800010BD00000EB410B59DB002A902900861EE
:103B90000B48822488604861012040421FABC881E5
:103BA000084804CBA400006801938C8100F06CF8F5
:103BB0000023029A13701DB010BC08BC03B0184754
:103BC000FFFFFF7FD0080020F0B58E6885B0071C8E
:103BD0000C1C03920193B34245D390238A89DB00E6
:103BE0001A423DD003250969236801985B1A0293A4
:103BF00063695D43EB0F5D19029B6D1001331B1868
:103C00009D4200D21D1C381C53050FD5291C00F005
:103C10001DFB061E13D0029A2169FFF7A9FFA28996
:103C2000184B134080221343A38111E02A1C00F09B
:103C300065FB061E0CD1381C216900F0C1FA0C236B
:103C4000402201203B60A38940421343A38117E037
:103C5000029B2661F61826606561019EED1AA5603B
:103C6000019BB34200D2019E321C2068039900F0F0
:103C700092FA0020A3689B1BA36023689E1926600C
:103C800005B0F0BD7FFBFFFFF0B59FB0029005933C
:103C90008B890E1C171C1B0610D50B69002B0DD130
:103CA000402100F0D3FA30603061002804D10C23A9
:103CB000029A01381360D0E040237361002306ADFF
:103CC0006B6120336B761033AB763C1C2378002B72
:103CD00003D1E31B049312D003E0252BF9D0013468
:103CE000F4E7049B0298311C3A1CFFF76DFF431C5C
:103CF00000D1ACE06A69049B944663446B6123780D
:103D0000002B00D1A3E00122002352426A6002A9E5
:103D10005432521801342B60EB60AB601370AB650A
:103D20004F4F2178381C052200F02AFA002808D0CD
:103D3000C01B01278740381C2B68013418432860BA
:103D4000EEE72B68DA0604D55322202102A81218C8
:103D500011701A0704D553222B2102A812181170D2
:103D600022782A2A01D0099B0EE0059A111D1268BB
:103D70000591002A01DB099204E05242EA60022226
:103D800013432B60013409E02278303A092A04D821
:103D90000A214B4301349B18F6E7099323782E2B15
:103DA00018D163782A2B09D1059B02341A1D1B6890
:103DB0000592002B0DDA01235B420AE00023013457
:103DC0002278303A092A04D80A214B4301349B183F
:103DD000F6E70793234F2178381C032200F0D0F92F
:103DE000002807D0C01B40278740381C2B680134AF
:103DF0001843286021781C480622671C297600F0A9
:103E0000BFF9002812D0194B002B06D10722059BC1
:103E1000073393430833059314E005AB00930298EE
:103E2000291C321C124B00E000BF07E005AB0093D9
:103E30000298291C321C0E4B00F08AF80390039B59
:103E4000013304D06B69039A9B186B613DE7B3891A
:103E50000B985B0601D5012040421FB0F0BDC04663
:103E60004A46001050460010544600100000000062
:103E7000C93B0010F7B5171C01930A698B680090C5
:103E80000C1C934200DA131C221C3B604332127854
:103E9000002A01D001333B6023689B0602D53B68B2
:103EA00002333B60062523681D401ED0231C43338C
:103EB0001B785A1E9341226892061CD53020E118C7
:103EC0004031C870211C5A1C45310978A218403273
:103ED0000233D1700FE0221C01230098019919329E
:103EE000089EB047431C0ED00135E3683A689B1A20
:103EF0009D42F0DBDAE7221C009801994332089DCD
:103F0000A847431C02D10120404220E0062320683C
:103F1000E1683A6803400025042B03D18D1AEB4376
:103F2000DB171D40A3682269934201DD9B1AED183F
:103F30000027AF420ADA221C0123009801991A32A5
:103F4000089EB047431CDED00137F2E70020FEBDDB
:103F5000F0B58BB006920A1C433207930590049289
:103F60000A7E0C1C109B6E2A00D1A8E011D8632A8F
:103F700022D009D8002A00D1B2E0582A00D0C2E0ED
:103F800045310A707C4A4FE0642A1DD0692A1BD053
:103F9000B9E0732A00D1A7E009D86F2A29D0702A86
:103FA00000D0B0E0202209680A43226037E0752A79
:103FB0001FD0782A33D0A6E00D1C1A684235111D97
:103FC000196013682B70A1E021681A68080603D5F0
:103FD000111D1960166805E04906F9D5111D196013
:103FE0000023D65E002E3BDA2D23049A764213700E
:103FF00036E021681A68080603D5111D1960166895
:1040000005E04906F9D5111D19601668B6B25A4B7C
:10401000227E03930A276F2A1DD108271BE0221C4A
:10402000782145321170554A19680392081D22689B
:1040300018600E68100602D4500600D5B6B2D30739
:1040400002D520231A4322601027002E03D12023FB
:1040500022689A432260231C002243331A7002E034
:104060000A27454B03936368A360002B03DB0422FC
:10407000216891432160002E02D1049D002B0ED0B7
:10408000049D301C391CFDF72DFA039B013D5B5C40
:10409000301C2B70391CFDF711FA061EF1D1082FC8
:1040A00009D12368DB0706D563682269934202DCE5
:1040B0003023013D2B70049B5B1B23612BE00968BF
:1040C0001A68080607D4490605D5111D196013683A
:1040D000A28A1A8004E0111D1960136862691A60CF
:1040E0000023049D236116E01A68111D19601568EC
:1040F0000021281C626800F043F8002801D0401B12
:104100006060636803E0251C42352A700123236147
:104110000023049A1370079B05980093211C069BAB
:1041200009AAFFF7A7FE431C02D10120404221E06B
:104130002A1C236905980699079DA847431CF4D0BB
:1041400023689B0705D4099BE068984212DA181C83
:1041500010E00025E368099A9B1A9D42F3DA221CBD
:104160000123059806991932079EB047431CDCD0FD
:104170000135EFE70BB0F0BD5B4600106C46001058
:10418000C9B28218904204D003788B4202D0013029
:10419000F8E70020704710B5814208D28B1898428A
:1041A00005D29B1A013A09D3995C8154FAE700239E
:1041B000934203D0CC5CC4540133F9E710BD000036
:1041C00030B500293ED004390B68002B00DAC9183D
:1041D0001D4A1368141C002B02D14B60116031E0A2
:1041E00099420DD208680A189A4203D11368C3187D
:1041F0000B6053684B60216024E08A4203D8131C93
:104200005A68002AF9D11D685C198C420BD10968E3
:10421000691858181960904214D11068526809182A
:1042200019605A600EE08C4202D90C23036009E049
:1042300008680C18944203D1146852680019086089
:104240004A60596030BDC046E80C0020032370B5B9
:10425000CC1C9C430834051C0C2C01D20C2405E01A
:10426000002C03DA0C2300202B6042E08C42F9D3AF
:10427000204A1368101C191C002913D00A68121B4D
:104280000DD40B2A02D90A608B181FE08B4202D191
:104290005A6802601BE04A685A600B1C17E00B1C4E
:1042A0004968E9E7144E3368002B03D1281C00F05D
:1042B0004BF83060281C211C00F046F8031C421CFF
:1042C000D0D00322C61C964386420AD11C60181C1B
:1042D00007210B301A1D8843821A0AD05142995087
:1042E00007E0311A281C00F02FF8431CBAD0331C09
:1042F000ECE770BDE80C0020E40C0020F8B5061CCB
:104300000C1C151C002904D1111CFFF79FFF041C75
:1043100018E0002A03D1FFF753FF2C1C12E000F035
:1043200025F8A8420ED2301C291CFFF78FFF071E6C
:1043300007D0211C2A1CFFF71BFC301C211CFFF797
:104340003FFF3C1C201CF8BD38B50023064C051C63
:10435000081C2360FDF7B8FB431C03D12368002B26
:1043600000D02B6038BDC046EC2000200B1F1A681F
:10437000101F002A04DA891804390B68D018043891
:104380007047000000001F008F0060FF70FF0000FA
:104390000000000000000000020000000200000019
:1043A0000C0000000C0000000C0000000C000000DD
:1043B000080000000A0000000300000003000000E5
:1043C0000C0000000C000000003000000030000075
:1043D000003000000030000000030000000C00006E
:1043E0001B6300000A0D0000257520000A20202D07
:1043F0002D2D2D2D2D2D2D2D2D2D2D2D20492072A6
:1044000061772073616D706C6573202D2D2D2D2DBE
:104410002D2D2D2D2D2D2D2D200A0D000A20202D86
:104420002D2D2D2D2D2D2D2D2D2D2D2D205120726D
:1044300061772073616D706C6573202D2D2D2D2D8E
:104440002D2D2D2D2D2D2D2D200A0D00256C7520A7
:10445000000000002569200025662000A844001007
:10446000711D0010000000000000000000000000AE
:10447000000000000000000000000000000000003C
:10448000944400100000000404020000000000003A
:10449000010000000002044000000000A0440010E1
:1044A000B00000000100000000F401000808011045
:1044B000000000000001000000000000452C00107A
:1044C00000000000000000000400B207000100002E
:1044D0000000B207FF7F0000170301000303030180
:1044E00001010000000000000000000000000000CA
:1044F00000000000000000000000000000000000BC
:1045000000000000000000000000000000000000AB
:10451000000000000000000000000000000000009B
:1045200000000000000004408000000000000100C6
:1045300006000000000004408000000000000100B0
:10454000090000000000044080000000000001009D
:10455000070000000000044080000000000001008F
:104560000500000000010000000001000000000044
:104570000F00000002000000050000000000000025
:104580000800000001000000F6310010BE310010EC
:10459000DA310010B2310010DA3100101E31001093
:1045A000DA310010B2310010BE310010BE310010FF
:1045B0001E310010B23100105C3200105C3200106D
:1045C0005C320010E0310010BE310010BE3100102E
:1045D000A6320010B0310010A63200101E310010BB
:1045E000A6320010B0310010BE310010BE310010F4
:1045F0001E310010B03100105C3200105C3200102F
:104600005C3200108A320010BE350010B635001042
:10461000B6350010AE350010003500100035001022
:10462000A4350010AE35001000350010A435001080
:1046300000350010AE3500100235001002350010B4
:1046400002350010483600104300232D302B200087
:10465000686C4C006566674546470030313233343C
:1046600035363738394142434445460030313233DC
:0D46700034353637383961626364656600A1
:0846800038F1FF7F010000008A
:104688002C488746000000000000000000000000E1
:104698000000000000000000000000000000000012
:1046A8002548874600000000000000002348874690
:1046B8002348874623488746234887462348874612
:1046C8002348874623488746234887462348874602
:1046D800234887460000000022488746224887462C
:1046E80022488746224887462248874622488746E6
:1046F80022488746224887462248874622488746D6
:1047080022488746224887462248874622488746C5
:1047180022488746224887462248874622488746B5
:104728002248874622488746000000000000000013
:104738002048874699100010991000109910001011
:1047480099100010E5210010F1210010FD21001042
:10475800991000109910001099100010991000106D
:104768009910001099100010591E0010491E0010D1
:10477800991000109910001099100010592C001071
:10478800991000109910001099100010991000103D
:10479800991000109910001099100010C5280010E9
:1047A800991000109910001099100010991000101D
:0847B800991000109910001087
:1047C000000000485C4400106009002058150100FA
:1047D0000038FFC70A000000050000009005002017
:1047E00000010448000000007C09002002007FB1A5
:1047F00000010000C4440010B44400100000000098
:10480000DC440010000000000090D0030100000014
:10481000000004480000000000040348E4440010C5
:1048200001020000A0050020C40500200C45001076
:10483000000003480040034802010000000803484C
:10484000F844001001020000FC0500208C09002043
:1048500000040348000100002C06002078450010E9
:1048600084450010AC0500207045001000000000D9
:104870000204000002002A00000000000000000006
:104880000002000002002B000000000000000000F9
:10489000000400000C0600208809002000040348E2
:1048A00000000000D00500201C06002001000000D0
:1048B00001000000C8000000000000000000A0414E
:1048C0004D0100002C010000070000000100000065
:1048D0000000003F0101010002000000FFFF000096
:1048E000FFFF0000E7030000000092012303B5046E
:1048F0004506D5076309F00A7C0C050E8C0F1111D3
:10490000931213148F1508177D18EF195C1BC61C22
:104910002B1E8B1FE6203D228E23D9241F265F27C6
:104920009928CD29FA2A212C402D592E6B2F75302C
:10493000783173326733523436351136E436AF3757
:1049400070382A39DA39813A203BB53B413CC43CC6
:104950003E3DAE3D143E713EC43E0E3F4E3F843F51
:10496000B03FD33FEB3FFA3FFF3FFA3FEB3FD33F30
:10497000B03F843F4E3F0E3FC43E713E143EAE3DBD
:104980003E3DC43C413CB53B203B813ADA392A39B3
:104990007038AF37E43611363635523467337332F8
:1049A000783175306B2F592E402D212CFA2ACD29C4
:1049B00099285F271F26D9248E233D22E6208B1FAE
:1049C0002B1EC61C5C1BEF197D1808178F151314BE
:1049D000931211118C0F050E7C0CF00A6309D50798
:1049E0004506B5042303920100006EFEDDFC4BFB7F
:1049F000BBF92BF89DF610F584F3FBF174F0EFEEA4
:104A00006DEDEDEB71EA081783E711E6A4E43AE3F4
:104A1000D5E175E01ADFC3DD72DC27DBE1D9A1D86F
:104A200067D733D606D5DFD3C0D2A7D195D08BCFE9
:104A300088CE8DCD99CCAECBCACAEFC91CC951C89E
:104A400090C7D6C626C67FC5E0C44BC4BFC33CC30F
:104A5000C2C252C2ECC18FC13CC1F2C0B2C07CC064
:104A600050C02DC015C006C03CC18FC1ECC152C2A0
:104A7000C2C23CC3BFC34BC4E0C47FC526C6D6C6B2
:104A800090C751C81CC9EFC9CACAAECB99CC8DCD4D
:104A900088CE8BCF95D0A7D1C0D2DFD306D533D661
:104AA00067D7A1D8E1D927DB72DCC3DD1ADF75E057
:104AB000D5E13AE3A4E411E683E7F8E871EAEDEB27
:104AC0006DEDEFEE74F0FBF184F310F59DF62BF82D
:104AD000BBF94BFBDDFC6EFE000000000000000097
:104AE00000000000000000000000000000000000C6
:104AF00000000000000000000000000000000000B6
:104B00000000000000000000484600100000000007
:104B10000000000000000000000000000000000095
:104B20000000000000000000000000000000000085
:104B30000000000000000000000000000000000075
:0C4B4000000000000000000070080020D1
:0400000510001019BE
:00000001FF
